{
  "address": "0xe78A0F7E598Cc8b0Bb87894B0F60dD2a88d6a8Ab",
  "abi": [
    {
      "anonymous": false,
      "inputs": [
        {
          "indexed": false,
          "internalType": "uint256",
          "name": "number",
          "type": "uint256"
        }
      ],
      "name": "CountedTo",
      "type": "event"
    },
    {
      "inputs": [],
      "name": "countDown",
      "outputs": [
        {
          "internalType": "uint256",
          "name": "",
          "type": "uint256"
        }
      ],
      "stateMutability": "nonpayable",
      "type": "function"
    },
    {
      "inputs": [],
      "name": "countUp",
      "outputs": [
        {
          "internalType": "uint256",
          "name": "",
          "type": "uint256"
        }
      ],
      "stateMutability": "nonpayable",
      "type": "function"
    },
    {
      "inputs": [],
      "name": "getCount",
      "outputs": [
        {
          "internalType": "uint256",
          "name": "",
          "type": "uint256"
        }
      ],
      "stateMutability": "view",
      "type": "function"
    }
  ],
  "transactionHash": "0xb9c8d69a4d89e06322c85f08757182c3f6f95e2f5c72d3f578002f5e249fcaaf",
  "args": [],
  "numDeployments": 1,
  "solcInputHash": "8c84d098b075424a0410c2c1312f9512",
  "bytecode": "0x60806040526000805534801561001457600080fd5b50610312806100246000396000f3fe608060405234801561001057600080fd5b50600436106100415760003560e01c80630bd8599e146100465780635fcbd5b614610060578063a87d942c14610068575b600080fd5b61004e610070565b60405190815260200160405180910390f35b61004e610140565b60005461004e565b60006100a66040518060400160405280601081526020016f636f756e7455703a20636f756e74203d60801b8152506000546101d0565b600080546100b5906001610297565b905060005481116101005760405162461bcd60e51b815260206004820152601060248201526f55696e74323536206f766572666c6f7760801b60448201526064015b60405180910390fd5b60008190556040518181527fa501f5a8ef1a812bff54fb3642cfaec066c351af1716c48a7bdd05e0bb631e679060200160405180910390a1505060005490565b600061017860405180604001604052806012815260200171636f756e74446f776e3a20636f756e74203d60701b8152506000546101d0565b6000600160005461018991906102af565b905060005481106101005760405162461bcd60e51b815260206004820152601160248201527055696e7432353620756e646572666c6f7760781b60448201526064016100f7565b61021582826040516024016101e692919061023a565b60408051601f198184030181529190526020810180516001600160e01b03166309710a9d60e41b179052610219565b5050565b80516a636f6e736f6c652e6c6f67602083016000808483855afa5050505050565b604081526000835180604084015260005b81811015610268576020818701810151606086840101520161024b565b8181111561027a576000606083860101525b50602083019390935250601f91909101601f191601606001919050565b600082198211156102aa576102aa6102c6565b500190565b6000828210156102c1576102c16102c6565b500390565b634e487b7160e01b600052601160045260246000fdfea26469706673582212201496b4142dfa94bdc3c4a36b829e7ed84ec85232cbdea29564a14a741b50782e64736f6c63430008070033",
  "devdoc": {
    "kind": "dev",
    "methods": {},
    "version": 1
  },
  "userdoc": {
    "kind": "user",
    "methods": {},
    "version": 1
  },
  "storageLayout": {
    "storage": [
      {
        "astId": 5,
        "contract": "contracts/Counter.sol:Counter",
        "label": "count",
        "offset": 0,
        "slot": "0",
        "type": "t_uint256"
      }
    ],
    "types": {
      "t_uint256": {
        "encoding": "inplace",
        "label": "uint256",
        "numberOfBytes": "32"
      }
    }
  }
}